:100000000C9461000C9473000C9473000C947300B6
:100010000C9473000C9473000C9473000C94730094
:100020000C9473000C9473000C9473000C94730084
:100030000C9473000C9473000C9473000C94730074
:100040000C9426010C9473000C9473000C947300B0
:100050000C9473000C9473000C9473000C94730054
:100060000C9473000C94730000000000250028001D
:100070002B0000000000240027002A0000000000E0
:1000800023002600290004040404040404040202DA
:100090000202020203030303030301020408102007
:1000A0004080010204081020010204081020000012
:1000B0000008000201000003040700000000000027
:1000C000000011241FBECFEFD4E0DEBFCDBF21E082
:1000D000A0E0B1E001C01D92A930B207E1F70E9493
:1000E00070010C9426020C940000833081F028F4F7
:1000F000813099F08230A9F008958730A9F08830D6
:10010000C9F08430B1F4809180008F7D03C080916C
:1001100080008F7780938000089584B58F7784BDA9
:10012000089584B58F7DFBCF8091B0008F77809349
:10013000B00008958091B0008F7DF9CF1F93CF93C9
:10014000DF93282F30E0F901E255FF4F8491F90148
:10015000E656FF4FD491F901EA57FF4FC491CC23E3
:10016000A9F0162F81110E947500EC2FF0E0EE0F20
:10017000FF1FE859FF4FA591B4918FB7F894EC9108
:10018000111108C0D095DE23DC938FBFDF91CF9192
:100190001F910895DE2BF8CF3FB7F89480910501A9
:1001A00090910601A0910701B091080126B5A89B86
:1001B00005C02F3F19F00196A11DB11D3FBFBA2FF9
:1001C000A92F982F8827BC01CD01620F711D811DB9
:1001D000911D42E0660F771F881F991F4A95D1F73E
:1001E00008958F929F92AF92BF92CF92DF92EF923B
:1001F000FF920E94CC004B015C0184E6C82ED12CFA
:10020000E12CF12C0E94CC00681979098A099B091C
:10021000683E734081059105A8F321E0C21AD10818
:10022000E108F10888EE880E83E0981EA11CB11C3D
:10023000C114D104E104F10429F7FF90EF90DF909D
:10024000CF90BF90AF909F908F9008951F920F9284
:100250000FB60F9211242F933F938F939F93AF93D9
:10026000BF938091010190910201A0910301B0918F
:1002700004013091000123E0230F2D3758F501963A
:10028000A11DB11D209300018093010190930201F3
:10029000A0930301B09304018091050190910601A0
:1002A000A0910701B09108010196A11DB11D809395
:1002B000050190930601A0930701B0930801BF9137
:1002C000AF919F918F913F912F910F900FBE0F9003
:1002D0001F90189526E8230F0296A11DB11DD2CFBD
:1002E000789484B5826084BD84B5816084BD85B511
:1002F000826085BD85B5816085BD80916E0081601D
:1003000080936E00109281008091810082608093C2
:1003100081008091810081608093810080918000C4
:100320008160809380008091B10084608093B100EF
:100330008091B00081608093B00080917A008460E9
:1003400080937A0080917A00826080937A00809115
:100350007A00816080937A0080917A00806880932F
:100360007A001092C100E1EAF0E02491EDE8F0E0BB
:100370008491882399F090E0880F991FFC01EE5832
:10038000FF4FA591B491FC01E859FF4F85919491DD
:100390008FB7F894EC91E22BEC938FBFC7EAD0E0D3
:1003A000FE01249103E910E0F80184918823C9F04B
:1003B00090E0880F991FFC01EE58FF4FA591B49172
:1003C000FC01E859FF4F459154913FB7F8949C9137
:1003D000822F809598239C93FA01908189238083B2
:1003E0003FBF9BEBE92E90E0F92E20E0C22E20E0EB
:1003F000D22EF7018491FE01A490F801B490BB20A5
:1004000001F181110E947500EB2DF0E0EE0FFF1F4E
:10041000E458FF4FA591B4918C91A82291F061E02E
:1004200087E00E949E000E94F10060E087E00E9449
:100430009E000E94F100C114D104D9F20E94000074
:10044000D8CF60E087E00E949E00F5CFF894FFCF00
:00000001FF
